:100000000C9434000C943E000C943E000C943E0082
:100010000C943E000C943E000C943E000C943E0068
:100020000C943E000C943E000C943E000C943E0058
:100030000C943E000C943E000C943E000C943E0048
:100040000C943E000C943E000C943E000C943E0038
:100050000C943E000C943E000C943E000C943E0028
:100060000C943E000C943E0011241FBECFEFD8E04C
:10007000DEBFCDBF0E9440000C945D000C940000D8
:100080008FEF84B985E585B983E38093C40086E06A
:100090008093C20088E08093C10095E52FEF34E3A0
:1000A0008CE0215030408040E1F700C0000085B175
:0E00B000809585B99093C600F1CFF894FFCFEC
:00000001FF
